:020000040800F2
:1000000010180020490100084B1E00081B1C0008A6
:10001000491E000855020008892900080000000058
:100020000000000000000000000000001127000890
:1000300065020008000000004D1E0008132700089C
:100040006301000863010008630100086301000800
:1000500063010008630100086301000863010008F0
:1000600063010008630100086301000863010008E0
:1000700063010008630100086301000863010008D0
:1000800063010008630100086301000863010008C0
:1000900063010008630100086301000867020008AB
:1000A00063010008630100086301000863010008A0
:1000B0006301000863010008630100086301000890
:1000C0006301000863010008630100086301000880
:1000D000630100085D29000863010008630100084E
:1000E0006301000863010008630100086301000860
:1000F0006301000863010008630100086301000850
:1001000063010008811E0008630100086301000804
:10011000630100086301000863010008630100082F
:100120006301000863010008630100085902000828
:10013000DFF810D000F07CF800480047D133000809
:10014000AFF300801018002006488047064800479B
:10015000FEE7FEE7FEE7FEE7FEE7FEE7FEE7FEE777
:10016000FEE7FEE77527000831010008202A04DBBE
:10017000203A21FA02F00021704721FA02F3D04020
:10018000C2F120029140084319467047D2B201E003
:1001900000F8012B491EFBD270470022F6E710B58C
:1001A00013460A4604461946FFF7F0FF204610BDE5
:1001B0002DE9F05F0546002092469B46884606469C
:1001C000814640241BE02846414647462246FFF729
:1001D000CDFF53465A46C01A914110D311461846D6
:1001E000224600F016F82D1A67EB01084F4622460A
:1001F0000120002100F00DF817EB00094E41201EF0
:10020000A4F10104DFDC484631462A464346BDE8F6
:10021000F09F202A04DB203A00FA02F10020704708
:100220009140C2F1200320FA03F319439040704734
:10023000064C074D06E0E06840F0010394E8070033
:1002400098471034AC42F6D3FFF776FFA03400088D
:10025000C0340008FEE70000014800F03BB9000090
:100260003C01002070474FF4807000F009BB72B66B
:10027000FEE7000030B5B3F5804F05D06FF0704158
:1002800040F82210002030BD8C690B688D68234334
:100290004C688989240144EA0524234343EA014147
:1002A00050F82230014C23401943E9E70000F0CF19
:1002B00010B50A6850F8223023F0010340F82230CC
:1002C0008C68082C23D000234A682243CC681C4346
:1002D0000B6922431A434B690E4C1A43CB691A43EC
:1002E0000B6A1A434B6A1A438B6A1A43CB6A1A4346
:1002F0000B6B1A438B6913434A6B09681A4350F816
:100300002130A343134340F82130002010BD402387
:10031000DAE700007FFF0F0030B5D1E9003443EA8F
:1003200004138C688D89240244EA054423430C8A13
:10033000094D00EB820005EB045423430C7D6D0155
:1003400005EB0464896923430B43416801F0404194
:100350000B434360002030BD0000F0FF10B590F863
:1003600021100022022905D00421816380F8202079
:10037000012010BD01680B6823F00E030B600168BB
:100380000B6823F001030B6090F84030C46B01212F
:1003900001FA03F3636080F8211080F820201046F2
:1003A00010BD00002DE9F05F90F821100024022913
:1003B00003D004218163012485E001680A6822F0EA
:1003C0000E020A6001680A6822F001020A603F4ECC
:1003D0003E4FB215DFF8F4C0DFF8F090DFF8ECA084
:1003E000DFF8E8B0DFF8E4E00168783F13011502B8
:1003F000ACF1640CA9F15009AAF13C0AABF1280B4D
:10040000AEF1140E4FF48018B14227D9B9420ED084
:10041000614512D049451DD0514518D0594518D0D5
:10042000714501D1424615E0294EB14201D1012268
:1004300010E0274E1436B14201D110220AE0244EBA
:100440002836B14206D0224A3C32914201D11A46A6
:1004500000E02A461E49091F0A602BE0B94213D06A
:10046000614517D0494522D051451DD059451DD071
:10047000714501D142461AE0B14202D14FF080727B
:1004800015E0134EB14201D1012210E0104E143696
:10049000B14201D110220AE00D4E2836B14206D0F9
:1004A0000B4A3C32914201D11A4600E02A460749E4
:1004B00080394A60012180F82110002180F8201045
:1004C000416B01B188472046BDE8F09F80000240A3
:1004D000080402402DE9F05FC16B0A6801680B68EF
:1004E000046C4FF0040808FA04F8844D844E854FDC
:1004F000DFF814C2DFF81492DFF814A2DFF814B2A8
:10050000DFF814E218EA020F65D05FEA437862D59B
:100510000A68920603D40A6822F004020A60DFF82F
:10052000F0814FF48062016808F11408130114028D
:10053000414524D9A9420DD0B1420FD0B9421AD0B9
:10054000614515D0494515D0514501D1120312E03E
:10055000594501D104220EE0714501D140220AE043
:100560006D4D1435A94206D06B4A2832914201D113
:100570001A4600E022466749091F0A6029E0A9429D
:1005800013D0B14215D0B94220D061451BD04945A6
:100590001BD0514502D14FF4800217E0414502D1F2
:1005A0004FF0806212E0594501D104220EE07145FE
:1005B00001D140220AE0584D1435A94206D0564ACE
:1005C0002832914201D11A4600E022464B490839AF
:1005D0004A60C16A71E04FF0020808FA04F818EAAC
:1005E000020F70D05FEA83786DD50A68920606D450
:1005F0000A6822F00A020A60012180F82110DFF85F
:1006000010814FF40072016808F1140813011402FC
:10061000414524D9A9420DD0B1420FD0B9421AD0D8
:10062000614515D0494515D0514501D1120312E05D
:10063000594501D102220EE0714501D120220AE084
:10064000354D1435A94206D0334A2832914201D1A2
:100650001A4600E022462F49091F0A6029E0A942F4
:1006600013D0B14215D0B94220D061451BD04945C5
:100670001BD0514502D14FF4001217E0414502D181
:100680004FF0007212E0594501D102220EE071458F
:1006900001D120220AE0204D1435A94206D01E4A7D
:1006A0002832914201D11A4600E022461349083906
:1006B0004A60002180F82010816A00291CD0BDE822
:1006C000F05F0847FFE70825A540154214D01A0738
:1006D00012D50A6822F00E020A6090F84020C36B1F
:1006E000012101FA02F25A60816380F82110002191
:1006F00080F82010016BE0E7BDE8F09F08000240A1
:100700001C000240300002404400024058000240F9
:100710006C000240080402401C04024030B560B185
:100720001A4B026814219A4209D2194B1344B3FBA5
:10073000F1F18900016417490AE0012030BD134B33
:100740005B421344B3FBF1F1890001640F4908399E
:10075000C163022180F82110136843F6F0718B43C6
:10076000F0E901142143D0E902452C4321430469F7
:1007700021434469214384692143194311600021C5
:100780004163012242770177084630BD08040240E8
:10079000F8FFFDBF0000024070B5044600F07EF98E
:1007A0000546601C02D004480078044400F076F945
:1007B000401BA042FAD370BD0800002030B585B0C0
:1007C000002000900190029003901B4801680029CE
:1007D00030D1012101601948416941F480714161C2
:1007E0004069022400F4807004904FF23F00CDE98C
:1007F0000004032569460395114800F04DF841F2C5
:100800003F40CDE90004694603950E4800F044F8E6
:100810004FF68370CDE90004694603950A4800F05D
:100820003BF84FF63370CDE900046946039507485D
:1008300000F032F805B030BD00000020001002408A
:10084000001C01400020014000180140001401403C
:100850000849094A00200B7813B1C2F88C0170478F
:10086000064BC3F898010120C3F89801C2F88C0127
:10087000087070472400002000802142008022423E
:10088000044910B50A68024202D00860FFF7E0FF91
:1008900010BD0000140401402DE9F84FDFF8C891A5
:1008A000002409F1040A0AF1040B23460F270BF177
:1008B000040ED1E00125A54006EA0502AA4276D140
:1008C000DFF8A8C14E68A6EB0C0866452BD00DDCFE
:1008D000032E34D005DC36B3012E19D0022E2FD1D1
:1008E0001BE0112E16D0122E2AD119E0B8F5881F60
:1008F00019D006DCB8F5803F15D0B8F5801F1FD1A0
:1009000011E0B8F5001F0ED0B8F5041F18D10AE0A9
:10091000CB6815E0CB681B1D12E0CB6808330FE0F5
:10092000CB680C330CE08B682BB1012B4FF0080324
:1009300003D0456104E0042302E0056100E00023E8
:10094000FF2A01D8064601E000F104064FEA8405BB
:1009500001D9A5F12005D6F8008007FA05FC28EAA0
:100960000C0803FA05F548EA0508C6F800804D684A
:10097000ED0070D53E4DAE6946F00106AE61AD6941
:1009800024F0030605F0010500953A4D06EB050C31
:10099000DCF80850A607360F07FA06F825EA08051E
:1009A000DFF8D480404503D14FF0000825E052E045
:1009B000DFF8C880404502D14FF001081DE0DFF8A4
:1009C000C080404502D14FF0020816E0DFF8B48045
:1009D000404502D14FF003080FE0DFF8AC804045FE
:1009E00002D14FF0040808E0DFF8A080404502D1B2
:1009F0004FF0050801E04FF0060808FA06F848EA4B
:100A00000508CCF808804D68D9F80060ED034D4624
:100A100001D5164300E096432E604D68DAF8006079
:100A2000AD03554601D5164300E096432E604D6850
:100A3000DBF80060ED025D4601D5164300E0964309
:100A40002E604D68DEF80060AD02754601D5164394
:100A500000E096432E60641C0A681646E2407FF46C
:100A600029AFBDE8F88F000000040140000011101C
:100A7000001002400000014000080140000C01404D
:100A8000001001400014014000180140001C01400A
:100A90000AB1016170470904FBE700000148806862
:100AA0007047000008000020024881680278114465
:100AB0008160704708000020074810B5016841F0C8
:100AC00010010160032000F075F80F2000F006F817
:100AD00000F024F8002010BD0020024070B50D4D3C
:100AE00004464FF47A712878B1FBF0F00A4909689E
:100AF000B1FBF0F000F0C2FE48B9102C07D2002282
:100B00002146501E00F036F800206C6070BD0120B8
:100B100070BD000008000020140000200C4808B53B
:100B2000816941F001018161816901F00101009158
:100B3000C16941F08051C161C06900F080500090EE
:100B40000448416821F0E06141F00071416008BD56
:100B50000010024000000140002809DB00F01F02E5
:100B6000012191404009800000F1E020C0F800110F
:100B700070470000F0B40E4B1B680C46C3F3022311
:100B8000C3F10705042D00D90425191D072901D239
:100B9000002300E0DB1E012606FA05F1491E214074
:100BA00099409E40761E16403143F0BC01F0FEBED7
:100BB0000CED00E0064900F0070208684FF6FF035D
:100BC000184040EA0220034A1043086070470000C2
:100BD0000CED00E00000FA052DE9F0470F46050096
:100BE00061D0434E306800F00700B84209D2306847
:100BF00020F0070038433060306800F00700B8424A
:100C000051D128683B4C810712D5400703D5606855
:100C100040F4E06060602878000703D5606840F425
:100C2000605060606068A96820F0F0000843606070
:100C30002878C00728D06868012810D021680228C9
:100C400010D0890700292EDA616821F003010143E1
:100C50006160FFF723FF804641F288390DE021688B
:100C60008903EFE78901EDE7FFF718FFA0EB080123
:100C7000494502D90320BDE8F0876068696800F043
:100C80000C00B0EB810FEFD1306800F00700B842E4
:100C90000BD9306820F0070038433060306800F02E
:100CA0000700B84201D00120E5E72878400705D5C4
:100CB0006068E96820F4E060084360602878000715
:100CC00006D56068296920F4605040EAC100606080
:100CD00000F038F86168084AC1F30311515CC8405C
:100CE0000649086006480068FFF7F8FE0020C2E7E2
:100CF00000200240001002400634000814000020CA
:100D00000C0000200448054900684968044AC1F302
:100D10000221515CC84070471400002000100240BE
:100D2000163400080448054900684968044AC1F3BC
:100D3000C221515CC84070471400002000100240DE
:100D40001634000812A185B00FC98DE80F0014A059
:100D5000144A006804905168134801F00C03042BF6
:100D600010D0082B0ED1C1F38343C9031DF8030033
:100D70000AD5516804AAC1F34041515C0A4A504364
:100D8000B0FBF1F005B0704708494843FAE70000AE
:100D900002030405060708090A0B0C0D0E0F1010BC
:100DA000010200000010024000127A0000093D001C
:100DB0002DE9F84F040070D02078C04DC00749D00D
:100DC0006868C0F38100012807D06868C0F381001B
:100DD000022809D16868C00306D52868800339D580
:100DE00060680028E7D035E06068B0F5803F0BD040
:100DF00010B1B0F5A02F11D0286820F48030286001
:100E0000286820F4802002E0286840F480302860C0
:100E1000606890B1FFF742FE06460AE0286840F499
:100E200080202860F0E700BFFFF738FE801B6428B1
:100E300073D828688003F7D50CE0FFF72FFE06462D
:100E400005E000BFFFF72AFE801B6428F0D8286861
:100E50008003F7D420789A4E80074FF001094FF0B5
:100E6000000839D5686810F00C0F07D06868C0F327
:100E70008100022809D16868C00306D42868800769
:100E800014D52069012808D110E02069B0B1C6F856
:100E90000090FFF703FE074605E00AE1FFF7FEFDBD
:100EA000C01B0228C4D828688007F7D52868616964
:100EB00020F0F80040EAC10028600DE0C6F800808C
:100EC000FFF7ECFD074604E0FFF7E8FDC01B022832
:100ED00023D828688007F7D4207800072CD57948D4
:100EE000A169D9B1C0F80090FFF7D8FD074604E02A
:100EF000FFF7D4FDC01B02280FD8686A8007F7D51A
:100F000071484FF4FA510068B0FBF1F0009000BF57
:100F10000098411E0091FAD20EE080E0C0F80080F7
:100F2000FFF7BCFD074604E0FFF7B8FDC01B022831
:100F300075D8686A8007F7D42078400760D5E869DB
:100F40000027C00008D4E86940F08050E861E869F3
:100F5000012700F0805000905C480168C90513D457
:100F60000168834641F480710160FFF797FD824676
:100F700006E000BFFFF792FDA0EB0A0064284ED800
:100F8000DBF80000C005F5D5E06801280AD008B1FB
:100F9000052813D0286A20F001002862286A20F072
:100FA000040002E0286A40F001002862E06841F293
:100FB000883B98B1FFF772FD82460BE0286A40F04B
:100FC00004002862EEE700BFFFF768FDA0EB0A010E
:100FD00059455AD8286A8007F6D50CE0FFF75EFD20
:100FE000824605E0FFF75AFDA0EB0A0159454CD8AF
:100FF000286A8007F6D41FB1E86920F08050E861C4
:10100000E06988B36968C1F38101022944D00228EC
:10101000C6F8608004D0FFF741FD044638E034E0B4
:10102000FFF73CFD074604E0FFF738FDC01B022830
:101030002BD828688001F7D4206AB0F5803F05D10D
:101040006868A16820F4003008436860D4E90801AA
:101050000843696821F4741108436860C6F8609019
:10106000FFF71CFD044606E025E000BFFFF716FD74
:10107000001B022809D828688001F7D51BE000BFB3
:10108000FFF70CFD001B022802D90320BDE8F88FF2
:1010900028688001F4D40EE00128F7D06868226A3D
:1010A00000F48031914204D1616A00F470108842EA
:1010B00001D00120EAE70020E8E70000001002402C
:1010C00000004242800442421400002000700040B0
:1010D000704700002DE9FE430446002603200D461C
:1010E00084F83400606C03285ED0B5F5805F5BD077
:1010F0004FF4006700204FF08068BD421FD1814649
:10110000009001900021206800F0B7FE800113D408
:101110006946204601F0BEF907000DD10198400351
:1011200034D5B4F850000104206800F0E1FE070057
:1011300002D10221206823E0A06B384328E01DB1D2
:10114000A06B40F0006023E08146009001900021F8
:10115000206800F092FE8001EED46946204601F03E
:1011600099F90700E8D10198C0030FD5B4F85000F1
:101170000104206800F0BCFE0700DDD100212068DA
:1011800000F003FF0700D7D14F46D5E74746D3E726
:10119000A063A06B144F4FF0010848B1206887632B
:1011A00084F8348001260EE0A06B40F08050EFE719
:1011B000211DD4E9050C0EC9CDE90050CDF808C0B9
:1011C000206800F063FE4FF40071206800F0C4FE58
:1011D00028B121688F63A16B0143A163012684F8C4
:1011E00034803046BDE8FE83FF05400070470000B4
:1011F000F0B5426E920F0A70426EC2F383624A707B
:10120000426EC2F301628A70426E120CCA70B0F86C
:101210006420120A0A7190F864204A71826E120DDD
:10122000CA80826EC2F303420A72B0F86820C2F329
:10123000C0324A72B0F86820C2F380328A72B0F8C5
:101240006820C2F34032CA72B0F86820C2F300329C
:101250000A7300264E73426C4FF40075012462B18C
:10126000012A3AD0026847499163816B41F080516D
:10127000816380F834400120F0BDB0F86820C36E6F
:101280009205120D42EA93720A61C26EC2F3C26203
:101290000A75C26EC2F302624A75C26EC2F342524E
:1012A0008A75C26EC2F38242CA75C26EC2F3C2327E
:1012B0000A760A69521C42650B7E03F007039B1CE9
:1012C0009A4042650B7A03F00F0704FA07F383652F
:1012D0005B0A5A43C0E917250EE090F86820C36EF8
:1012E0009206920A42EA13420A610A69521C920269
:1012F0004265C0E91652056630F86C2FC2F38032A1
:1013000001F8192F0288C2F3C6124A70027802F05F
:101310007F028A704268D20FCA704268C2F341727B
:101320000A714268C2F382624A714268C2F3835210
:101330008A714268C2F34052CA710E724268C2F3A7
:1013400000424A728288C2F3C0328A728288C2F333
:101350008032CA728288C2F340320A738288C2F332
:1013600000324A738288C2F381228A738288C2F370
:101370000122CA730079C0F3460008744C7400203F
:10138000F0BD0000FF054000426C0A60826C4A60BC
:10139000C26C8A60026DCA60426D0A61826D4A61E8
:1013A000C26D8A61006EC8610020704770B5044646
:1013B000B0F8500000250104206800F0BEFE18B10E
:1013C000A16B0143A16304E00021206800F055FDFA
:1013D0000546C5F3432070BDF8B5056B04460068AB
:1013E000416B09041BD5290719D5D4E90A56002EEB
:1013F00014D00027206800F063FD05F8010B010AF6
:1014000005F8011B010C05F8021B000E361F7F1C9E
:1014100005F8010C082FEDD3C4E90A56F8BD416B5D
:101420004FF00006C9054FF0010744D5390281632A
:101430002068C16B4CF23A129143C1632068C16AC3
:1014400021F00101C16228071DD515F0220F09D036
:10145000206800F0A3FE28B1A16B0143A1632046E0
:10146000FFF7C4FE216840F23A50886384F8347074
:101470002663A80703D0204600F064F9F8BD204693
:1014800000F061F9F8BD2806FCD5A80609D520684A
:1014900000F084FE28B1A16B0143A1632046FFF751
:1014A000A5FEA807EED12068C16A21F00801C1623B
:1014B00084F83470E3E7416B490424D5290722D529
:1014C000D4E90856002EDDD05FF0000715F8010BB7
:1014D000009015F8011B361F40EA0120009015F816
:1014E000021B40EA0140009015F8011C40EA01602F
:1014F00000906946206800F0F6FC7F1C082FE5D3B9
:10150000C4E90856F8BD416B11F03A0FFAD0416BAF
:10151000890703D5A16B41F00201A163416B090763
:1015200003D5A16B41F00801A163416B890603D586
:10153000A16B41F02001A163416BC90603D5A16BEA
:1015400041F01001A16340F23A7181632068C16BE0
:1015500040F23A329143C163206800F01FFEA16B54
:101560000843A063280706D584F834702663204614
:10157000FFF73CFEF8BD2806FCD515F0300F0CD067
:10158000E16B11484863E06BFEF70CFF0028F1D0D7
:10159000E06BBDE8F84000F05BBFA8070CD0216C01
:1015A0000A484863206CFEF7FDFE0028E2D0206C5C
:1015B000BDE8F84000F02ABFA66384F834702663C3
:1015C0002046FFF785FDF8BD512400080D240008D2
:1015D00070B504000ED094F83400002518B92577B2
:1015E000204600F04BF8032084F83400204600F039
:1015F0000BF808B1012070BDA5632563012084F8B4
:101600003400002070BD0000FEB5002504467620A1
:101610000095CDE9015029460B460A46206800F0A6
:1016200035FC28BB134E46F8A05F206800F040FC54
:1016300001253560204601F011F828B184F83450B6
:10164000A16B0143A16313E0204600F090FF002846
:10165000F4D14FF40071206800F07EFC002808D01F
:10166000226805499163A16B0143A16384F834505A
:101670000120FEBD00003042FF054000F0B585B0FE
:1016800000260546009601960296039600682749B3
:10169000884249D12649486940F4806048614869D8
:1016A00000F480600490886940F0100088618869C7
:1016B00000F010000490886940F02000886188697B
:1016C000022400F0200004904FF4F850CDE900040B
:1016D0000327694603971748FFF7DEF80420CDE992
:1016E0000004694603971448FFF7D6F8144C1348D2
:1016F000C4E900068020C4E9026080002061800007
:10170000C4E905062046E661FFF708F808B1FEF7D0
:10171000AEFD2C64EC630022114631206562FFF7B8
:1017200029FA3120FFF718FA05B0F0BD008001401A
:101730000010024000100140001401404404024027
:101740003C0100207047704770B5040009D0606A02
:10175000002540B125616561A56294F8510040B152
:101760000CE0012070BD6068B0F5827FF4D0E561C7
:10177000F2E784F85050204600F03FF8022084F849
:1017800051002068016821F040010160A088218992
:1017900000F4827001F404410843A18901F400615E
:1017A0000843217C01F002010843217D01F0010181
:1017B0000843218B01F400710843217F01F03801B7
:1017C000084394F8201001F080010843218D01F4B2
:1017D0000051084321680860A069042101EA104013
:1017E000216848602068C16921F40061C1616565B4
:1017F000012084F85100002070BD704770B5154677
:101800000E46040007D0A069B0F5807F03D094F89D
:10181000410010B107E0012070BD002084F84000B5
:10182000204600F01DF804F108012068FEF740FD95
:101830003146A2682068FEF76FFDD4E9010229460F
:10184000236BFEF717FDA168206850F8212042F0B5
:10185000010240F82120012084F84100002070BDE1
:10186000FEF7ACBF4FF0E0210428086903D020F058
:1018700004000861704740F00400FAE710B5401E0C
:10188000B0F1807F01D3012010BD4FF0E0246061F2
:101890000F21601701F08AF80020A0610720206165
:1018A000002010BD7047704710F83D1F4078084376
:1018B00070470000F8B5026804461068D1685369A3
:1018C00010F00F0F4FF0000553D003F0010601F4A4
:1018D000907737435FD0C20705D0CA0503D5226C85
:1018E00042F001022264420705D5DA0703D0226CD8
:1018F00042F002022264820705D5DA0703D0226C87
:1019000042F004022264020707D501F020023243AC
:1019100003D0226C42F008022264226C002A34D0E8
:10192000800604D5880602D5204600F044FF2068D2
:101930004069216CC0F38010090700D430B3204601
:1019400000F021FF2068416949061BD5416921F05B
:1019500040014161A06BA8B158494163A06BFEF7FB
:1019600021FD002811D0A06B416B01B0BDE8F04013
:10197000084783060FD58B060DD52046BDE8F840F5
:1019800000F019BF2046FFF78EFFF8BD2046FFF795
:101990008AFF2564F8BD266B2023012E52D1C6068E
:1019A00050D5CE064ED5106850680090506940065C
:1019B0002AD5A16B086840680004000CEAD0A68D07
:1019C0008642E7D9E0858869202818D0D06820F4BD
:1019D0008070D0602068416921F001014161206878
:1019E000416921F04001416184F83E30256320685F
:1019F000C16821F01001C160A06BFEF7AFFCA08DA3
:101A0000E18D401A81B219E0A08DE18D401A81B2BA
:101A1000E08D0028BED00029BCD0D06820F49070A2
:101A2000D0602068426922F00102426184F83E30B1
:101A300025632068C26822F01002C2602046FFF7CA
:101A400031FFF8BD05062BD50D0629D594F83D00CC
:101A50002128F6D1A068B0F5805F01D12069B0B12E
:101A6000206A411C2162216800784860E08C401E99
:101A70000004000CE084E4D12068C16821F08001FA
:101A8000C1602068C16841F04001C160F8BD206AB2
:101A90000088C0F308005060206A801C2062E5E7DF
:101AA0004006F3D54806F1D5D168204621F0400123
:101AB000D16084F83D3000F0AFF8F8BD772700081A
:101AC00070B5040004D094F83D00002510B106E084
:101AD000012070BD84F83C50204600F023F82420FB
:101AE00084F83D002068C16821F40051C16020469F
:101AF00000F0BCFE2068016921F49041016120687A
:101B0000416921F02A0141612068C16841F4005116
:101B1000C1602564202084F83D0084F83E00002048
:101B200070BD000030B585B000240094019402948B
:101B3000039400681449884224D11448816941F40F
:101B400080418161816901F480410491816941F0A2
:101B50000401816180690E4D00F0040004904FF48F
:101B600000700090022001900320039069462846EF
:101B7000FEF792FE2815CDE9000469462846029436
:101B8000FEF78AFE05B030BD00380140001002406B
:101B90000008014090F83E30202B0ED159B152B1CF
:101BA00090F83C30012B08D0012380F83C30002312
:101BB000036300F0B7BE01207047022070470000A9
:101BC00030B50068114988420CD1114841880A0497
:101BD00008D402464C0412784FF0000306D50A2AB6
:101BE00001D0438030BD41F400410DE00D2A09D001
:101BF000C1F30D04074D491C89B22A554180C729FC
:101C0000EFD830BD41F48041418030BD0038014003
:101C10001C000020C40100207047FEE7094808B5F9
:101C2000416941F0020141614069002200F0020077
:101C3000009001213B20FEF79DFFBDE808403B20BE
:101C4000FEF78ABF001002402DE9F0478EB01C213C
:101C50006846FEF7A2FA1C2107A8FEF79EFA304854
:101C600004210024C0E902141025C0E90445846160
:101C7000C4614FF4805A0462C0E9094A0A03C0E90A
:101C80000B42DFF8A09044634FF020468463C0E924
:101C900000690F27CDE900174FF0110802AA0220B2
:101CA000CDF8148082E83100CDE9064009AA0897F2
:101CB00082E83100CDE90C8407AA69461848FFF78D
:101CC0009DFD08B1FEF7D3FA1548062148300022E1
:101CD000C0E90214C0E904458461C4610462C0E93A
:101CE000094AC462046344638463C0E90069FF2055
:101CF0000097CDE90170CDE905840948CDE9037568
:101D000069464830FFF77AFD08B1FEF7B0FA064899
:101D1000C16941F48061C1610EB0BDE8F087000087
:101D200028000020040100A000000140194808B567
:101D3000816941F080018161816901F08001009138
:101D4000816941F480718161816901F48071009140
:101D5000816941F040018161816901F04001009198
:101D6000816941F020018161816901F020010091C8
:101D7000816941F010018161816901F010010091D8
:101D8000816941F004018161806900F004000090E4
:101D900008BD0000001002401A4808B5416941F42E
:101DA00080614161416901F480610091816941F084
:101DB00010018161816901F010010091816941F098
:101DC000200181618069104900F0200000900F48D7
:101DD0000160002141608160C160016141610421B5
:101DE0008161FFF7F5FB08B1FEF741FA4FF400619E
:101DF0000648FFF76FF9002803D0BDE80840FEF75A
:101E000036BA08BD0010024000800140B800002032
:101E10000C4810B50A4901604FF4E13141600021DE
:101E200081600C22C160C0E904128161C161FFF7C9
:101E300047FE002803D0BDE81040FEF718BA10BDD9
:101E40000038014080010020FEE7FEE770470A6885
:101E500042624A688262D1E902231A43D1E904311D
:101E60000B43C16A1A4321F0F7011143C1620020FC
:101E70007047006800F003007047084440697047ED
:101E80000148FFF7A9BA0000B800002070B50DF1B5
:101E9000100C11439CE87000234319432943426806
:101EA000314347F6FF639A430A434260002070BD06
:101EB00010B5032101600220FEF76EFC002010BD6A
:101EC000D0F8800070470A688260D1E901231A4384
:101ED000D1E903310B43C1681A436FF30B0111437E
:101EE000C160002070470968C0F88010002070476A
:101EF00010B586B004463720CDE90010402002908E
:101F0000002003904FF48060049069462046FFF75C
:101F1000DAFF41F288323721204600F059F906B045
:101F200010BD000010B504460A4886B001432920C0
:101F3000CDE9001040200290002003904FF4806013
:101F4000049069462046FFF7BEFF204600F0F8F9EE
:101F500006B010BD0000108010B586B004461020F9
:101F6000CDE9001040200290002003904FF48060E3
:101F7000049069462046FFF7A6FF41F288321021FF
:101F8000204600F025F906B010BD10B586B0044615
:101F90000620CDE9001040200290002003904FF46D
:101FA0008060049069462046FFF78DFF41F2883239
:101FB0000621204600F00CF906B010BD30B585B002
:101FC00000240546009401944FF480600294CDE90A
:101FD000034069462846FFF776FF0B484FF4FA5155
:101FE0000068B0FBF1F041F288314843401E03D253
:101FF0004FF0004005B030BD696B0906F6D5C5202D
:10200000A8632046F6E700001400002070B585B0F4
:1020100004464FF4D570009001A908204025002601
:1020200081E86100C001049069462046FFF74BFF3C
:1020300012484FF4FA510068B0FBF1F041F28831D8
:102040004843401E03D24FF0004005B070BD616BA5
:1020500011F0450FF5D00905F3D4606B400701D5A9
:10206000042003E0606BC00702D00120A063ECE70E
:10207000606B400600D5A5633046E6E714000020FB
:1020800010B586B004460720CDE90020402002901C
:10209000002003904FF48060049069462046FFF7CB
:1020A00012FF41F288320721204600F091F806B075
:1020B00010BD10B586B0044600210220CDE9001005
:1020C000C020CDE902014FF48060049069462046AB
:1020D000FFF7F9FE204600F00BF906B010BD10B571
:1020E00086B004460920CDE90010C02002900020EF
:1020F00003904FF48060049069462046FFF7E3FEAA
:10210000204600F0F5F806B010BD10B586B00446C4
:1021100000213320CDE900104020CDE9020100016B
:10212000049069462046FFF7CEFE41F28832332103
:10213000204600F04DF806B010BD10B586B004463C
:102140000D20CDE9001040200290002003904FF4B4
:102150008060049069462046FFF7B5FE41F2883260
:102160000D21204600F034F806B010BD30B585B022
:102170000C46054600210320CDE900104020CDE9A2
:1021800002010001049069462846FFF79CFE2246A2
:102190000321284600F0F6F805B030BD10B586B032
:1021A000044600210C20CDE900104020CDE90201B9
:1021B0000001049069462046FFF785FE034A0C2182
:1021C000204600F005F806B010BD000000E1F5055E
:1021D000454B10B51B684FF4FA54B3FBF4F353436B
:1021E0005B1E02D24FF0004010BD426B12F0450F53
:1021F000F6D01205F4D4426B520703D50421816353
:10220000084610BD426BD20702D00121816305E070
:10221000C52282630269D2B28A4201D0012010BD78
:102220000021FFF72AFE3149084201D1002010BDEC
:10223000002802DA4FF0007010BD410001D54020A7
:1022400010BD810001D5802010BDC10002D54FF422
:10225000807010BD010102D54FF4007010BD410126
:1022600002D54FF4806010BDC10102D54FF400606B
:1022700010BD010202D54FF4805010BD410202D5BD
:102280004FF4005010BD810202D54FF4804010BDC4
:10229000C10202D54FF4004010BD410302D54FF4F6
:1022A000003010BD810302D54FF4802010BDC10362
:1022B00002D54FF4002010BD010402D54FF4801068
:1022C00010BD410402D54FF4001010BD810402D5A9
:1022D0004FF4800010BD000702D54FF4000010BD80
:1022E0004FF4803010BD00001400002008E0FFFD16
:1022F00012494FF4FA520968B1FBF2F141F2883207
:102300005143491E02D24FF000407047426B12F019
:10231000450FF6D01205F4D4416B490703D50421CB
:10232000816308467047416BC90703D0012181636F
:1023300008467047C52181630020704714000020C3
:102340000F494FF4FA520968B1FBF2F141F28832B9
:102350005143491E02D24FF000407047426B12F0C9
:10236000450FF6D01205F4D4416B490703D504217B
:10237000816308467047C5218163002070470000D3
:102380001400002030B5204B4FF4FA541B68B3FB07
:10239000F4F341F2883463435B1E02D24FF00040F5
:1023A00030BD446B14F0450FF6D02405F4D4436BD4
:1023B0005B0703D504218163084630BD436BDB070F
:1023C00002D00121816303E00369DBB28B4201D0BB
:1023D000012030BDC52181630021FFF74EFD10F4BF
:1023E000604F04D0410406D54FF4005030BD000CBE
:1023F0001080002030BD000402D54FF4805030BD65
:102400004FF4803030BD00001400002010B5446A45
:1024100040F23A50216888632046FEF7C7FF012149
:1024200084F8341000212163062801D0052805D145
:102430002068FFF7B3FEA16B0843A063A06B0028E0
:10244000204602D0FEF7D2FE10BDFEF741FE10BDC1
:1024500010B5446A40F23A50216888632046FEF77E
:10246000A5FF012184F8341000212163062801D042
:10247000052805D12068FFF791FEA16B0843A063F2
:10248000A06B0028204602D0FEF7B0FE10BDFEF77C
:102490001FFE10BD2DE9F04788B00D460446FEF73B
:1024A000FDFA0026824600960196374608212068EC
:1024B000FFF752FD002829D1B4F85000010420682C
:1024C000FFF716FD002821D1401E4FF00808CDE986
:1024D000020830204FF00209CDE904090120CDE9BE
:1024E000067002A92068FFF7B2FC2068FFF70DFE16
:1024F00000280BD16F462068416B11F02A0F08D0DD
:10250000416B09071AD5C0F83880082008B0BDE82B
:10251000F087416B890205D5FFF7D2FC47F826000A
:10252000761C02E0416B8904EAD5FEF7B7FAA0EB0E
:102530000A00401CDFD14FF00040E7E7416B8907FC
:1025400003D5C0F838900220E0E7416B890603D537
:10255000202181630846D9E740F23A51816301980E
:1025600000BA2860009800BA68600020CEE710B575
:1025700090B004460120ADF838002068FFF779FCE0
:10258000002854D0606C032842D02068FFF791FDEA
:1025900000284AD100212068FFF76FFC6067042102
:1025A0002068FFF76AFCA06708212068FFF765FC38
:1025B000E0670C212068FFF760FCC4F88000606CC5
:1025C000032825D00EA92068FFF7D0FD00282CD1C4
:1025D000606C03281CD0BDF8380020650104206819
:1025E000FFF77DFD002820D100212068FFF745FC82
:1025F000606604212068FFF740FCA066082120687F
:10260000FFF73BFCE0660C212068FFF736FC2067F3
:1026100004212068FFF731FC000DE06403A9204687
:10262000FEF7E6FD30B14FF0805010B010BD4FF016
:102630008060FAE7B4F85000002302042068FFF736
:102640001FFD0028F1D104F1100007C88DE8070034
:1026500094E80F00FFF71AFC0020E6E72DE9F84F99
:102660000026044600963546B0460068FFF7A6FCF3
:10267000002827D12068FFF7C9FC4FF0805B4FF09E
:1026800001094FF6FF7748B1A6642068FFF796FC72
:10269000002817D1A06C012802D020E0C4F848908F
:1026A00000212068FFF724FC58B918E000212068B9
:1026B000FFF71EFC002805D151462068FFF732FCC9
:1026C00010B15846BDE8F88F00212068FFF7D5FB10
:1026D00005464FEAD0780098401C009002E0DFF8F1
:1026E0002CA00098B84202D2B8F1000FDED00098BA
:1026F000B84202D34FF08070E4E7680002D5C4F816
:10270000449000E066640020DCE70000000010C197
:102710007047FEF7C9B930B58FB028216846FDF77C
:102720003CFD14210AA8FDF738FD01210804CDE97C
:1027300000100024029402250491CDE907504FF4C3
:10274000E01009906846FEF733FB08B172B6FEE769
:102750000F20CDE90A054FF48060CDE90C4002213D
:102760000AA80E94FEF738FA002801D072B6FEE7E8
:102770000FB030BD704710B5406A0021C185C184DB
:10278000FFF791F810BD0168CA6822F49072CA6020
:1027900001684A6922F001024A61016B012904D1F2
:1027A0000168CA6822F01002CA60202180F83E1039
:1027B00000210163704708B590F83E10222901D02E
:1027C000022008BD82684FF480539A4201D101690A
:1027D00021B1816A9A421BD04AB10AE00268816A3B
:1027E0005268C2F308020A80816A891C08E0026903
:1027F00072B10268526802F07F020A70816A491C55
:102800008162C18D491E0904090CC18503D019E0FC
:1028100002685268F1E70168CA6822F02002CA60C3
:102820000168CA6822F48072CA6001684A6922F0AD
:1028300001024A61202180F83E10016B012903D07A
:10284000FFF7BEF9002008BD002101630168CA68D6
:1028500022F01002CA6001680A68D20602D50A682E
:1028600049680091818DFFF71DF8EBE770B50446CC
:1028700000680169E26821F4405111430161216956
:10288000A0680843616908432168CA6841F20C6383
:102890009A430243CA6020684169A26921F44071E9
:1028A000114341611E492068884202D1FEF73AFA7D
:1028B00001E0FEF727FA00EBC00101EB00126068AF
:1028C00064218000B2FBF0F3B3FBF1F36FF0180664
:1028D0007343B2FBF0F5B2FBF0F605EB8305322350
:1028E00003EB0515B5FBF1F5B6FBF1F605F0F005C8
:1028F00005EB0615B2FBF0F6B2FBF0F0B0FBF1F021
:102900006FF01802504306EB800003EB0010B0FBA1
:10291000F1F0216800F00F002844886070BD0000CD
:102920000038014081628285C28500210164222233
:1029300080F83E2080F83C100168CA6842F480723A
:10294000CA6001684A6942F001024A610068C168D0
:1029500041F02001C16000207047000010B5084818
:10296000FEF7A8FF0648FEF79FFF2028FAD10122B4
:1029700004490348FFF70EF90028F8D110BD000004
:102980008C0200201C000020FEE700000FB4054B65
:1029900010B503A9044A029800F028F810BC5DF8AD
:1029A00014FB0000B9330008200000200907090EBD
:1029B000002804DB00F1E02080F80014704700F0EC
:1029C0000F0000F1E02080F8141D704702E008C8F5
:1029D000121F08C1002AFAD170477047002001E099
:1029E00001C1121F002AFBD1704700002DE9FF4FE3
:1029F0008DB09B460F460446002606E025280BD0E6
:102A00005A460F999047641C761C20780028F5D10F
:102A100011B03046BDE8F08F0025A8460122984944
:102A200000E0054314F8013F203B02FA03F008429E
:102A3000F7D120782E2817D114F8010F45F004059E
:102A40002A280ED06FF02F022078A0F1300109293A
:102A50000AD808EB880102EB410100EB0108641C75
:102A6000F2E757F8048B641C20786C280DD004DC46
:102A70004C2812D06A2811D104E074280DD07A288D
:102A80000CD10AE045F4001507E0617845F48015A3
:102A9000814202D1641C05F58015641C20786928E8
:102AA00044D008DC0028B3D0582867D063280FD062
:102AB000642808D13AE0702865D0732812D07528B0
:102AC0005AD078285AD05A460F999047761CD5E0AC
:102AD00017F8040B8DF8000000208DF80100E9467E
:102AE000012003E057F8049B4FF0FF3069074FF0D7
:102AF000000501D40AE06D1C45450DDA8542FADB7C
:102B000019F805100029F6D106E06D1C8542FCDBA2
:102B100019F805100029F8D12E4404E019F8010B2A
:102B20005A460F9990476D1EF8D2A7E00A2000215F
:102B3000CDE90801C5F3025002280CD001CFC1171E
:102B4000021E71F100020CDA0023D0EB030063EBEC
:102B500001012D2208E0FF1D27F00707F7E8020119
:102B6000EEE72A0504D52B228DF8282001223CE02F
:102B7000EA073AD02022F7E70A2000E010200021DF
:102B8000CDE9080107E01020002145F00405CDE95A
:102B900008014FF00808C5F30250022810D001CFF9
:102BA00000214FF0000A2A0720D52278702A0DD084
:102BB000DDE908C38CF0100C5CEA030C0CD015E0C6
:102BC000FF1D27F00707F7E80201EAE740228DF82A
:102BD00028204FF0010A0CE050EA010306D0302310
:102BE0008DF828308DF82920022292462278582A22
:102BF00004D024A20DF120090B9209E026A2F9E7E6
:102C0000DDE90823FDF7D4FA0B9B9B5C09F8013D35
:102C100050EA0102F4D1ADEB0900203008906807BA
:102C200001D44FF001080899884503DD0898A8EB06
:102C3000000000E000208046002506E00AA85A4671
:102C4000405D0F9990476D1C761C5545F6DB04E0FE
:102C500030205A460F999047761CB8F10001A8F130
:102C60000108F5DC05E019F8010B5A460F99904769
:102C7000761C0899481E08900029F4DC641CC4E600
:102C80000928010030313233343536373839616242
:102C90006364656600000000303132333435363706
:102CA00038394142434445460000000070B586B0C3
:102CB0002B4800250195816941F0100181618169EE
:102CC00001F010010491816941F480718161816991
:102CD00001F480710491816941F008018161816989
:102CE00001F008010491816941F02001816180694E
:102CF000012400F0200004900326FF20CDE90246C5
:102D0000009069461748FDF7C7FDB003CDE9000400
:102D1000CDE9024669461448FDF7BEFD1820CDE90D
:102D20000004CDE9024669461048FDF7B5FD402094
:102D3000CDE90004CDE9024669460D48FDF7ACFD3A
:102D40000C48C0F898410C48C0F8B841C0F8BC51D4
:102D50000A48C0F88C51C0F8905106B070BD000010
:102D6000001002400010014000200140000C014012
:102D700000140140008022420000244200802142D1
:102D80002DE9F04186B0354800240294416941F4B0
:102D900080614161416901F480610491816941F080
:102DA00010018161816901F010010491816941F094
:102DB000200181618069022500F0200004904FF419
:102DC000F850CDE900050326694603962448FDF72F
:102DD00063FD0427CDE90075694622480396FDF797
:102DE0005BFD224D20484FF40068C5E900048020B7
:102DF000C5E9024080002861C5E905842846EC61E8
:102E0000FDF78CFCC0B9A5F1A4061948C6E9000479
:102E1000B460B7613803F460C6E904403046FEF799
:102E2000D7FB48B9A5F120013046FEF7ADFA41467F
:102E30003046FEF74FF918B1012006B0BDE8F08129
:102E400035646E62002211463120F563FDF792FE73
:102E50003120FDF781FE0020EFE700000010024066
:102E6000001001400014014044040240740300209B
:102E70000080014030B585B00024294800940194B9
:102E800002940394416821F0E06141F08061416067
:102E900000F058F8FFF70AFF2248816941F0040169
:102EA00081618069694600F0040004904FF48070ED
:102EB000CDE9000401200290032003901A48FDF799
:102EC000EBFCFFF7F3FE8021122000F0A1F970B9AE
:102ED0000A2000F0DDF91C2000F0CEF804021D20CD
:102EE00000F0CAF82043A0F5FE41A23902D001202B
:102EF00005B030BD01460DA0FFF748FD104D002480
:102F000005EB4400417815F8140000F081F9012820
:102F1000EED0641CA4B2412CF2D30020E8E70000FC
:102F20000000014000100240000801404F563737B2
:102F30003235206572726F72210D0A2025780000EB
:102F40001E34000830B5174885B0816941F0200172
:102F50008161816901F020010491816941F48071EE
:102F600081618069012400F4807004900820CDE91B
:102F70000004032569460C48CDE90245FDF78CFCA9
:102F80006003CDE9000469460848CDE90245FDF734
:102F900083FC0748C0F88C410648C0F8B44105B02E
:102FA00030BD00000010024000140140002001402C
:102FB000008022420000244270B5322000F076F9F1
:102FC0000C4C0120C4F88C010B4DC5F8B401322023
:102FD00004F5C67405F5DA7500F068F90026266078
:102FE000322000F063F92E60BDE87040322000F01E
:102FF0005DB9000000802242000024422DE9F04724
:103000001A4C0025606820F470006060606840F42D
:1030100000006060DFF85890164F2E464FF0010810
:10302000AA4600BFC7F88C81192000F03FF9680656
:10303000050ED9F8340108B145F00105192000F05A
:1030400035F9C7F88CA1322000F030F9761CF6B2C1
:10305000082EE7D3606820F470006060606840F478
:10306000401060602846BDE8F08700000020014065
:10307000000024420080224210B50446322000F0B5
:1030800015F900F023F8422000F05CF8322000F03F
:103090000DF9204600F056F8322000F007F900F054
:1030A00033F8322000F002F900F010F8432000F06D
:1030B00049F8322000F0FAF8FFF7A0FF0446FFF7C6
:1030C0007BFF00F021F8204610BD000070B50C4CCD
:1030D0000120C4F88C010B4DC5F8B401322004F571
:1030E000C67405F5DA7500F0E1F800262E6032208E
:1030F00000F0DCF82660BDE87040322000F0D6B861
:10310000008022420000244270B50C4C0020C4F81C
:103110008C010B4DC5F8B401322004F5C67405F5D9
:10312000DA7500F0C3F801262660322000F0BEF800
:103130002E60BDE87040322000F0B8B80080224216
:10314000000024422DE9F047DFF8B8A08146DAF804
:10315000041021F47001CAF80410DAF8041041F4E4
:103160004011CAF804100025DFF89C80274C012785
:103170002E4600BFC4F88C61192000F097F809FAB8
:1031800005F00006404602D5C0F8B47101E0C0F871
:10319000B461192000F08AF8C4F88C71322000F074
:1031A00085F86D1CEDB2082DE4D3C4F88C61DAF813
:1031B0000400554620F47000CAF80400DAF8040050
:1031C00040F40000CAF80400322000F06FF8C4F8A0
:1031D0008C71322000F06AF8D8F8340108B1012768
:1031E00000E00027C4F88C61322000F05FF86868C6
:1031F00020F470006860686840F4401068603846E9
:10320000BDE8F087002001400000244200802242F7
:1032100070B506460D460024322000F047F8FFF74F
:1032200055FF4220FFF78EFF00B10124322000F04D
:103230003DF83046FFF786FF00B10124322000F050
:1032400035F82846FFF77EFF00B10124322000F058
:103250002DF8FFF759FF204670BD000010B5044659
:103260000420FEF7FFFA4FF0E02106484861064AC5
:10327000F02082F8140D00208861072008610348BF
:10328000046010BDFEFFFF000FE000E0180000200A
:1032900070B5054600244FF47A7603E0304600F01E
:1032A00005F8641CAC42F9D370BD000070B54FF056
:1032B000E024002265690949A36909684843A169B6
:1032C0009942FCD002D2A3EB010302E0A5EB010678
:1032D00033441A440B468242F1D370BD18000020DB
:1032E0002DE9F04186B02F4800250295816941F013
:1032F00040018161816901F040010491816941F4DB
:1033000080518161816901F480510491816941F0AA
:10331000040181618069012600F00400049004200A
:10332000CDE90006DFF88080032469460394404617
:10333000FDF7B2FAA02002270394CDE900071B4C49
:1033400069462046FDF7A8FA4020CDE90005694608
:1033500020460295FDF7A0FA012204214046FDF720
:1033600097FB144C124820604FF48270C4E90105A9
:103370007002C4E90560C4E903573820C4E90705B1
:103380000A206562C4E90A502046FEF7DDF908B15B
:10339000FCF76DFF2068016841F04001016006B054
:1033A000BDE8F08100100240001801400008014013
:1033B00000300140B803002004490A685206FCD5D9
:1033C000024AC1B2121D116070470000003801406E
:1033D000FDF772FBFFF79FF9FEF7A8FCFEF734FC40
:1033E000FEF71CFCFEF7D8FCFEF712FD0520FDF7EA
:1033F000E1FB4820FFF732FFFFF7C2FCFFF770FF49
:10340000FFF738FDFEE700000000000000000102A9
:10341000030406070809000000000102030411006C
:103420001246173F185019031A78320029502C7889
:10343000427F4D0963E064FF65006600670013F09A
:103440000D810FC51411227F23032440253026A1AE
:103450002B9E6BAA13FF900891019203930094B0E6
:10346000959D96139716987B99919A1E9B089C2080
:103470009E81A606A765A865A980AA807E0C7F16F6
:10348000802A814E8261836F847B8586868E8797B2
:1034900088A489AF8AC58BD78CE88D200C500EF597
:1034A000C03400080000002028000000CC290008DB
:1034B000E834000828000020E8170000DC29000894
:1034C00000000000000000000100000010000000EB
:1034D000000000000024F4000000000000000000D4
:0834E0000000000000000000E4
:0400000508000131BD
:00000001FF
